{
  "contractName": "PIAICToken",
  "abi": [
    {
      "inputs": [],
      "stateMutability": "nonpayable",
      "type": "constructor"
    },
    {
      "anonymous": false,
      "inputs": [
        {
          "indexed": true,
          "internalType": "address",
          "name": "owner",
          "type": "address"
        },
        {
          "indexed": true,
          "internalType": "address",
          "name": "spender",
          "type": "address"
        },
        {
          "indexed": false,
          "internalType": "uint256",
          "name": "value",
          "type": "uint256"
        }
      ],
      "name": "Approval",
      "type": "event"
    },
    {
      "anonymous": false,
      "inputs": [
        {
          "indexed": true,
          "internalType": "address",
          "name": "previousOwner",
          "type": "address"
        },
        {
          "indexed": true,
          "internalType": "address",
          "name": "newOwner",
          "type": "address"
        }
      ],
      "name": "OwnershipTransferred",
      "type": "event"
    },
    {
      "anonymous": false,
      "inputs": [
        {
          "indexed": true,
          "internalType": "address",
          "name": "from",
          "type": "address"
        },
        {
          "indexed": true,
          "internalType": "address",
          "name": "to",
          "type": "address"
        },
        {
          "indexed": false,
          "internalType": "uint256",
          "name": "value",
          "type": "uint256"
        }
      ],
      "name": "Transfer",
      "type": "event"
    },
    {
      "stateMutability": "payable",
      "type": "fallback",
      "payable": true
    },
    {
      "inputs": [],
      "name": "cap",
      "outputs": [
        {
          "internalType": "uint256",
          "name": "",
          "type": "uint256"
        }
      ],
      "stateMutability": "view",
      "type": "function",
      "constant": true
    },
    {
      "inputs": [],
      "name": "decimals",
      "outputs": [
        {
          "internalType": "uint8",
          "name": "",
          "type": "uint8"
        }
      ],
      "stateMutability": "view",
      "type": "function",
      "constant": true
    },
    {
      "inputs": [],
      "name": "name",
      "outputs": [
        {
          "internalType": "string",
          "name": "",
          "type": "string"
        }
      ],
      "stateMutability": "view",
      "type": "function",
      "constant": true
    },
    {
      "inputs": [],
      "name": "owner",
      "outputs": [
        {
          "internalType": "address",
          "name": "",
          "type": "address"
        }
      ],
      "stateMutability": "view",
      "type": "function",
      "constant": true
    },
    {
      "inputs": [],
      "name": "symbol",
      "outputs": [
        {
          "internalType": "string",
          "name": "",
          "type": "string"
        }
      ],
      "stateMutability": "view",
      "type": "function",
      "constant": true
    },
    {
      "stateMutability": "payable",
      "type": "receive",
      "payable": true
    },
    {
      "inputs": [],
      "name": "totalSupply",
      "outputs": [
        {
          "internalType": "uint256",
          "name": "",
          "type": "uint256"
        }
      ],
      "stateMutability": "view",
      "type": "function",
      "constant": true
    },
    {
      "inputs": [
        {
          "internalType": "address",
          "name": "account",
          "type": "address"
        }
      ],
      "name": "balanceOf",
      "outputs": [
        {
          "internalType": "uint256",
          "name": "",
          "type": "uint256"
        }
      ],
      "stateMutability": "view",
      "type": "function",
      "constant": true
    },
    {
      "inputs": [
        {
          "internalType": "address",
          "name": "recipient",
          "type": "address"
        },
        {
          "internalType": "uint256",
          "name": "amount",
          "type": "uint256"
        }
      ],
      "name": "transfer",
      "outputs": [
        {
          "internalType": "bool",
          "name": "",
          "type": "bool"
        }
      ],
      "stateMutability": "nonpayable",
      "type": "function"
    },
    {
      "inputs": [
        {
          "internalType": "address",
          "name": "tokenOwner",
          "type": "address"
        },
        {
          "internalType": "address",
          "name": "spender",
          "type": "address"
        }
      ],
      "name": "allowance",
      "outputs": [
        {
          "internalType": "uint256",
          "name": "",
          "type": "uint256"
        }
      ],
      "stateMutability": "view",
      "type": "function",
      "constant": true
    },
    {
      "inputs": [
        {
          "internalType": "address",
          "name": "spender",
          "type": "address"
        },
        {
          "internalType": "uint256",
          "name": "amount",
          "type": "uint256"
        }
      ],
      "name": "approve",
      "outputs": [
        {
          "internalType": "bool",
          "name": "",
          "type": "bool"
        }
      ],
      "stateMutability": "nonpayable",
      "type": "function"
    },
    {
      "inputs": [
        {
          "internalType": "address",
          "name": "tokenOwner",
          "type": "address"
        },
        {
          "internalType": "address",
          "name": "recipient",
          "type": "address"
        },
        {
          "internalType": "uint256",
          "name": "amount",
          "type": "uint256"
        }
      ],
      "name": "transferFrom",
      "outputs": [
        {
          "internalType": "bool",
          "name": "",
          "type": "bool"
        }
      ],
      "stateMutability": "nonpayable",
      "type": "function"
    },
    {
      "inputs": [
        {
          "internalType": "uint256",
          "name": "qty",
          "type": "uint256"
        }
      ],
      "name": "mint",
      "outputs": [
        {
          "internalType": "uint256",
          "name": "",
          "type": "uint256"
        }
      ],
      "stateMutability": "nonpayable",
      "type": "function"
    },
    {
      "inputs": [
        {
          "internalType": "uint256",
          "name": "_Price",
          "type": "uint256"
        }
      ],
      "name": "adjustPrice",
      "outputs": [
        {
          "internalType": "uint256",
          "name": "",
          "type": "uint256"
        }
      ],
      "stateMutability": "nonpayable",
      "type": "function"
    },
    {
      "inputs": [],
      "name": "ether_Send",
      "outputs": [],
      "stateMutability": "payable",
      "type": "function",
      "payable": true
    },
    {
      "inputs": [
        {
          "internalType": "address",
          "name": "sender",
          "type": "address"
        },
        {
          "internalType": "address",
          "name": "recipient",
          "type": "address"
        },
        {
          "internalType": "uint256",
          "name": "amount",
          "type": "uint256"
        }
      ],
      "name": "_transfer",
      "outputs": [],
      "stateMutability": "nonpayable",
      "type": "function"
    },
    {
      "inputs": [
        {
          "internalType": "address",
          "name": "newOwner",
          "type": "address"
        }
      ],
      "name": "transferOwnership",
      "outputs": [],
      "stateMutability": "nonpayable",
      "type": "function"
    }
  ],
  "bytecode": "0x60806040523480156200001157600080fd5b506040518060400160405280600981526020017f50494149432d4243430000000000000000000000000000000000000000000000815250600590805190602001906200005f929190620003a1565b506040518060400160405280600381526020017f424343000000000000000000000000000000000000000000000000000000000081525060069080519060200190620000ad929190620003a1565b506012600760006101000a81548160ff021916908360ff16021790555033600a60006101000a81548173ffffffffffffffffffffffffffffffffffffffff021916908373ffffffffffffffffffffffffffffffffffffffff16021790555033600460006101000a81548173ffffffffffffffffffffffffffffffffffffffff021916908373ffffffffffffffffffffffffffffffffffffffff160217905550600760009054906101000a900460ff16600a6200016a9190620004da565b620f42406200017a919062000617565b6003819055506200019d6002600354620002bb60201b6200166b1790919060201c565b600b81905550600354600080600460009054906101000a900473ffffffffffffffffffffffffffffffffffffffff1673ffffffffffffffffffffffffffffffffffffffff1673ffffffffffffffffffffffffffffffffffffffff16815260200190815260200160002081905550600460009054906101000a900473ffffffffffffffffffffffffffffffffffffffff1673ffffffffffffffffffffffffffffffffffffffff163073ffffffffffffffffffffffffffffffffffffffff167fddf252ad1be2c89b69c2b068fc378daa952ba7f163c4a11628f55a4df523b3ef6003546040516200028d919062000462565b60405180910390a3620002b5620002a9620002d360201b60201c565b620002db60201b60201c565b62000730565b60008183620002cb919062000617565b905092915050565b600033905090565b6000600460009054906101000a900473ffffffffffffffffffffffffffffffffffffffff16905081600460006101000a81548173ffffffffffffffffffffffffffffffffffffffff021916908373ffffffffffffffffffffffffffffffffffffffff1602179055508173ffffffffffffffffffffffffffffffffffffffff168173ffffffffffffffffffffffffffffffffffffffff167f8be0079c531659141344cd1fd0a4f28419497f9722a3daafe3b4186f6b6457e060405160405180910390a35050565b828054620003af906200068f565b90600052602060002090601f016020900481019282620003d357600085556200041f565b82601f10620003ee57805160ff19168380011785556200041f565b828001600101855582156200041f579182015b828111156200041e57825182559160200191906001019062000401565b5b5090506200042e919062000432565b5090565b5b808211156200044d57600081600090555060010162000433565b5090565b6200045c8162000678565b82525050565b600060208201905062000479600083018462000451565b92915050565b6000808291508390505b6001851115620004d157808604811115620004a957620004a8620006c5565b5b6001851615620004b95780820291505b8081029050620004c98562000723565b945062000489565b94509492505050565b6000620004e78262000678565b9150620004f48362000682565b9250620005237fffffffffffffffffffffffffffffffffffffffffffffffffffffffffffffffff84846200052b565b905092915050565b6000826200053d576001905062000610565b816200054d576000905062000610565b81600181146200056657600281146200057157620005a7565b600191505062000610565b60ff841115620005865762000585620006c5565b5b8360020a915084821115620005a0576200059f620006c5565b5b5062000610565b5060208310610133831016604e8410600b8410161715620005e15782820a905083811115620005db57620005da620006c5565b5b62000610565b620005f084848460016200047f565b925090508184048111156200060a5762000609620006c5565b5b81810290505b9392505050565b6000620006248262000678565b9150620006318362000678565b9250817fffffffffffffffffffffffffffffffffffffffffffffffffffffffffffffffff04831182151516156200066d576200066c620006c5565b5b828202905092915050565b6000819050919050565b600060ff82169050919050565b60006002820490506001821680620006a857607f821691505b60208210811415620006bf57620006be620006f4565b5b50919050565b7f4e487b7100000000000000000000000000000000000000000000000000000000600052601160045260246000fd5b7f4e487b7100000000000000000000000000000000000000000000000000000000600052602260045260246000fd5b60008160011c9050919050565b6122c080620007406000396000f3fe6080604052600436106100f75760003560e01c806372bf079e1161008a578063a9059cbb11610059578063a9059cbb1461035c578063b25b5d8e14610399578063dd62ed3e146103a3578063f2fde38b146103e0576100fe565b806372bf079e1461028c5780638da5cb5b146102c957806395d89b41146102f4578063a0712d681461031f576100fe565b806330e0789e116100c657806330e0789e146101d0578063313ce567146101f9578063355274ea1461022457806370a082311461024f576100fe565b806306fdde0314610100578063095ea7b31461012b57806318160ddd1461016857806323b872dd14610193576100fe565b366100fe57005b005b34801561010c57600080fd5b50610115610409565b6040516101229190611dbb565b60405180910390f35b34801561013757600080fd5b50610152600480360381019061014d919061186d565b610497565b60405161015f9190611da0565b60405180910390f35b34801561017457600080fd5b5061017d61066e565b60405161018a9190611f9d565b60405180910390f35b34801561019f57600080fd5b506101ba60048036038101906101b5919061181e565b610678565b6040516101c79190611da0565b60405180910390f35b3480156101dc57600080fd5b506101f760048036038101906101f2919061181e565b6109c0565b005b34801561020557600080fd5b5061020e610d29565b60405161021b9190611fb8565b60405180910390f35b34801561023057600080fd5b50610239610d3c565b6040516102469190611f9d565b60405180910390f35b34801561025b57600080fd5b50610276600480360381019061027191906117b9565b610d42565b6040516102839190611f9d565b60405180910390f35b34801561029857600080fd5b506102b360048036038101906102ae91906118a9565b610d8a565b6040516102c09190611f9d565b60405180910390f35b3480156102d557600080fd5b506102de610e2b565b6040516102eb9190611d85565b60405180910390f35b34801561030057600080fd5b50610309610e51565b6040516103169190611dbb565b60405180910390f35b34801561032b57600080fd5b50610346600480360381019061034191906118a9565b610edf565b6040516103539190611f9d565b60405180910390f35b34801561036857600080fd5b50610383600480360381019061037e919061186d565b6110ab565b6040516103909190611da0565b60405180910390f35b6103a1611399565b005b3480156103af57600080fd5b506103ca60048036038101906103c591906117e2565b6114ec565b6040516103d79190611f9d565b60405180910390f35b3480156103ec57600080fd5b50610407600480360381019061040291906117b9565b611573565b005b600580546104169061218c565b80601f01602080910402602001604051908101604052809291908181526020018280546104429061218c565b801561048f5780601f106104645761010080835404028352916020019161048f565b820191906000526020600020905b81548152906001019060200180831161047257829003601f168201915b505050505081565b600080339050600073ffffffffffffffffffffffffffffffffffffffff168173ffffffffffffffffffffffffffffffffffffffff16141561050d576040517f08c379a000000000000000000000000000000000000000000000000000000000815260040161050490611ddd565b60405180910390fd5b600073ffffffffffffffffffffffffffffffffffffffff168473ffffffffffffffffffffffffffffffffffffffff16141561057d576040517f08c379a000000000000000000000000000000000000000000000000000000000815260040161057490611ddd565b60405180910390fd5b82600160008373ffffffffffffffffffffffffffffffffffffffff1673ffffffffffffffffffffffffffffffffffffffff16815260200190815260200160002060008673ffffffffffffffffffffffffffffffffffffffff1673ffffffffffffffffffffffffffffffffffffffff168152602001908152602001600020819055508373ffffffffffffffffffffffffffffffffffffffff168173ffffffffffffffffffffffffffffffffffffffff167f8c5be1e5ebec7d5bd14f71427d1e84f3dd0314c0f7b2291e5b200ac8c7c3b9258560405161065b9190611f9d565b60405180910390a3600191505092915050565b6000600354905090565b6000803390506000600160008773ffffffffffffffffffffffffffffffffffffffff1673ffffffffffffffffffffffffffffffffffffffff16815260200190815260200160002060008373ffffffffffffffffffffffffffffffffffffffff1673ffffffffffffffffffffffffffffffffffffffff16815260200190815260200160002054905083811015610742576040517f08c379a000000000000000000000000000000000000000000000000000000000815260040161073990611e9d565b60405180910390fd5b838161074e91906120d0565b9050836000808873ffffffffffffffffffffffffffffffffffffffff1673ffffffffffffffffffffffffffffffffffffffff1681526020019081526020016000205461079a91906120d0565b6000808873ffffffffffffffffffffffffffffffffffffffff1673ffffffffffffffffffffffffffffffffffffffff16815260200190815260200160002081905550836000808773ffffffffffffffffffffffffffffffffffffffff1673ffffffffffffffffffffffffffffffffffffffff168152602001908152602001600020546108269190611fef565b6000808773ffffffffffffffffffffffffffffffffffffffff1673ffffffffffffffffffffffffffffffffffffffff168152602001908152602001600020819055508473ffffffffffffffffffffffffffffffffffffffff168673ffffffffffffffffffffffffffffffffffffffff167fddf252ad1be2c89b69c2b068fc378daa952ba7f163c4a11628f55a4df523b3ef866040516108c59190611f9d565b60405180910390a380600160008873ffffffffffffffffffffffffffffffffffffffff1673ffffffffffffffffffffffffffffffffffffffff16815260200190815260200160002060008473ffffffffffffffffffffffffffffffffffffffff1673ffffffffffffffffffffffffffffffffffffffff168152602001908152602001600020819055508173ffffffffffffffffffffffffffffffffffffffff168673ffffffffffffffffffffffffffffffffffffffff167f8c5be1e5ebec7d5bd14f71427d1e84f3dd0314c0f7b2291e5b200ac8c7c3b925866040516109ab9190611f9d565b60405180910390a36001925050509392505050565b6109c8611681565b73ffffffffffffffffffffffffffffffffffffffff166109e6611689565b73ffffffffffffffffffffffffffffffffffffffff1614610a3c576040517f08c379a0000000000000000000000000000000000000000000000000000000008152600401610a3390611f1d565b60405180910390fd5b600073ffffffffffffffffffffffffffffffffffffffff168373ffffffffffffffffffffffffffffffffffffffff161415610aac576040517f08c379a0000000000000000000000000000000000000000000000000000000008152600401610aa390611f5d565b60405180910390fd5b600073ffffffffffffffffffffffffffffffffffffffff168273ffffffffffffffffffffffffffffffffffffffff161415610b1c576040517f08c379a0000000000000000000000000000000000000000000000000000000008152600401610b1390611dfd565b60405180910390fd5b600260003373ffffffffffffffffffffffffffffffffffffffff1673ffffffffffffffffffffffffffffffffffffffff16815260200190815260200160002054421015610b9e576040517f08c379a0000000000000000000000000000000000000000000000000000000008152600401610b9590611f3d565b60405180910390fd5b60008060008573ffffffffffffffffffffffffffffffffffffffff1673ffffffffffffffffffffffffffffffffffffffff16815260200190815260200160002054905081811015610c24576040517f08c379a0000000000000000000000000000000000000000000000000000000008152600401610c1b90611edd565b60405180910390fd5b8181036000808673ffffffffffffffffffffffffffffffffffffffff1673ffffffffffffffffffffffffffffffffffffffff16815260200190815260200160002081905550816000808573ffffffffffffffffffffffffffffffffffffffff1673ffffffffffffffffffffffffffffffffffffffff1681526020019081526020016000206000828254610cb79190611fef565b925050819055508273ffffffffffffffffffffffffffffffffffffffff168473ffffffffffffffffffffffffffffffffffffffff167fddf252ad1be2c89b69c2b068fc378daa952ba7f163c4a11628f55a4df523b3ef84604051610d1b9190611f9d565b60405180910390a350505050565b600760009054906101000a900460ff1681565b600b5481565b60008060008373ffffffffffffffffffffffffffffffffffffffff1673ffffffffffffffffffffffffffffffffffffffff168152602001908152602001600020549050919050565b600081600881905550600460009054906101000a900473ffffffffffffffffffffffffffffffffffffffff1673ffffffffffffffffffffffffffffffffffffffff163373ffffffffffffffffffffffffffffffffffffffff1614610e23576040517f08c379a0000000000000000000000000000000000000000000000000000000008152600401610e1a90611efd565b60405180910390fd5b819050919050565b600460009054906101000a900473ffffffffffffffffffffffffffffffffffffffff1681565b60068054610e5e9061218c565b80601f0160208091040260200160405190810160405280929190818152602001828054610e8a9061218c565b8015610ed75780601f10610eac57610100808354040283529160200191610ed7565b820191906000526020600020905b815481529060010190602001808311610eba57829003601f168201915b505050505081565b6000600460009054906101000a900473ffffffffffffffffffffffffffffffffffffffff1673ffffffffffffffffffffffffffffffffffffffff163373ffffffffffffffffffffffffffffffffffffffff1614610f71576040517f08c379a0000000000000000000000000000000000000000000000000000000008152600401610f6890611efd565b60405180910390fd5b60008211610fb4576040517f08c379a0000000000000000000000000000000000000000000000000000000008152600401610fab90611e7d565b60405180910390fd5b600b54610fd183610fc361066e565b6116b390919063ffffffff16565b10611011576040517f08c379a000000000000000000000000000000000000000000000000000000000815260040161100890611ebd565b60405180910390fd5b81600360008282546110239190611fef565b9250508190555081600080600460009054906101000a900473ffffffffffffffffffffffffffffffffffffffff1673ffffffffffffffffffffffffffffffffffffffff1673ffffffffffffffffffffffffffffffffffffffff168152602001908152602001600020600082825461109a9190611fef565b925050819055506003549050919050565b600080339050600073ffffffffffffffffffffffffffffffffffffffff168173ffffffffffffffffffffffffffffffffffffffff161415611121576040517f08c379a000000000000000000000000000000000000000000000000000000000815260040161111890611e1d565b60405180910390fd5b600073ffffffffffffffffffffffffffffffffffffffff168473ffffffffffffffffffffffffffffffffffffffff161415611191576040517f08c379a000000000000000000000000000000000000000000000000000000000815260040161118890611e1d565b60405180910390fd5b826000808373ffffffffffffffffffffffffffffffffffffffff1673ffffffffffffffffffffffffffffffffffffffff1681526020019081526020016000205411611211576040517f08c379a000000000000000000000000000000000000000000000000000000000815260040161120890611f7d565b60405180910390fd5b826000808373ffffffffffffffffffffffffffffffffffffffff1673ffffffffffffffffffffffffffffffffffffffff1681526020019081526020016000205461125b91906120d0565b6000808373ffffffffffffffffffffffffffffffffffffffff1673ffffffffffffffffffffffffffffffffffffffff16815260200190815260200160002081905550826000808673ffffffffffffffffffffffffffffffffffffffff1673ffffffffffffffffffffffffffffffffffffffff168152602001908152602001600020546112e79190611fef565b6000808673ffffffffffffffffffffffffffffffffffffffff1673ffffffffffffffffffffffffffffffffffffffff168152602001908152602001600020819055508373ffffffffffffffffffffffffffffffffffffffff168173ffffffffffffffffffffffffffffffffffffffff167fddf252ad1be2c89b69c2b068fc378daa952ba7f163c4a11628f55a4df523b3ef856040516113869190611f9d565b60405180910390a3600191505092915050565b6000349050600460009054906101000a900473ffffffffffffffffffffffffffffffffffffffff1673ffffffffffffffffffffffffffffffffffffffff166108fc829081150290604051600060405180830381858888f19350505050158015611406573d6000803e3d6000fd5b5080600360008282546114199190611fef565b9250508190555060008111611463576040517f08c379a000000000000000000000000000000000000000000000000000000000815260040161145a90611e3d565b60405180910390fd5b600854816114719190612045565b6009819055506009546000803373ffffffffffffffffffffffffffffffffffffffff1673ffffffffffffffffffffffffffffffffffffffff16815260200190815260200160002060008282546114c79190611fef565b92505081905550600954600360008282546114e291906120d0565b9250508190555050565b6000600160008473ffffffffffffffffffffffffffffffffffffffff1673ffffffffffffffffffffffffffffffffffffffff16815260200190815260200160002060008373ffffffffffffffffffffffffffffffffffffffff1673ffffffffffffffffffffffffffffffffffffffff16815260200190815260200160002054905092915050565b61157b611681565b73ffffffffffffffffffffffffffffffffffffffff16611599611689565b73ffffffffffffffffffffffffffffffffffffffff16146115ef576040517f08c379a00000000000000000000000000000000000000000000000000000000081526004016115e690611f1d565b60405180910390fd5b600073ffffffffffffffffffffffffffffffffffffffff168173ffffffffffffffffffffffffffffffffffffffff16141561165f576040517f08c379a000000000000000000000000000000000000000000000000000000000815260040161165690611e5d565b60405180910390fd5b611668816116c9565b50565b600081836116799190612076565b905092915050565b600033905090565b6000600460009054906101000a900473ffffffffffffffffffffffffffffffffffffffff16905090565b600081836116c19190611fef565b905092915050565b6000600460009054906101000a900473ffffffffffffffffffffffffffffffffffffffff16905081600460006101000a81548173ffffffffffffffffffffffffffffffffffffffff021916908373ffffffffffffffffffffffffffffffffffffffff1602179055508173ffffffffffffffffffffffffffffffffffffffff168173ffffffffffffffffffffffffffffffffffffffff167f8be0079c531659141344cd1fd0a4f28419497f9722a3daafe3b4186f6b6457e060405160405180910390a35050565b60008135905061179e8161225c565b92915050565b6000813590506117b381612273565b92915050565b6000602082840312156117cb57600080fd5b60006117d98482850161178f565b91505092915050565b600080604083850312156117f557600080fd5b60006118038582860161178f565b92505060206118148582860161178f565b9150509250929050565b60008060006060848603121561183357600080fd5b60006118418682870161178f565b93505060206118528682870161178f565b9250506040611863868287016117a4565b9150509250925092565b6000806040838503121561188057600080fd5b600061188e8582860161178f565b925050602061189f858286016117a4565b9150509250929050565b6000602082840312156118bb57600080fd5b60006118c9848285016117a4565b91505092915050565b6118db81612104565b82525050565b6118ea81612116565b82525050565b60006118fb82611fd3565b6119058185611fde565b9350611915818560208601612159565b61191e8161224b565b840191505092915050565b6000611936601983611fde565b91507f617070726f76652066726f6d207a65726f2061646472657373000000000000006000830152602082019050919050565b6000611976602383611fde565b91507f45524332303a207472616e7366657220746f20746865207a65726f206164647260008301527f65737300000000000000000000000000000000000000000000000000000000006020830152604082019050919050565b60006119dc601a83611fde565b91507f7472616e736665722066726f6d207a65726f20616464726573730000000000006000830152602082019050919050565b6000611a1c601b83611fde565b91507f796f75206e65656420746f2073656e6420736f6d6520657468657200000000006000830152602082019050919050565b6000611a5c602683611fde565b91507f4f776e61626c653a206e6577206f776e657220697320746865207a65726f206160008301527f64647265737300000000000000000000000000000000000000000000000000006020830152604082019050919050565b6000611ac2600e83611fde565b91507f496e76616c696420616d6f756e740000000000000000000000000000000000006000830152602082019050919050565b6000611b02602283611fde565b91507f207472616e7366657220616d6f756e74206578636565647320616c6c6f77616e60008301527f63650000000000000000000000000000000000000000000000000000000000006020830152604082019050919050565b6000611b68601083611fde565b91507f4f7665726c697374656420546f6b656e000000000000000000000000000000006000830152602082019050919050565b6000611ba8602683611fde565b91507f45524332303a207472616e7366657220616d6f756e742065786365656473206260008301527f616c616e636500000000000000000000000000000000000000000000000000006020830152604082019050919050565b6000611c0e602083611fde565b91507f6f6e6c792061646d696e2063616e2072756e20746869732066756e6374696f6e6000830152602082019050919050565b6000611c4e602083611fde565b91507f4f776e61626c653a2063616c6c6572206973206e6f7420746865206f776e65726000830152602082019050919050565b6000611c8e601783611fde565b91507f4e6f7420616c6c6f77656420746f207472616e736665720000000000000000006000830152602082019050919050565b6000611cce602583611fde565b91507f45524332303a207472616e736665722066726f6d20746865207a65726f20616460008301527f64726573730000000000000000000000000000000000000000000000000000006020830152604082019050919050565b6000611d34602083611fde565b91507f7472616e73666572206163636f756e74206578636565642062616c616e6365736000830152602082019050919050565b611d7081612142565b82525050565b611d7f8161214c565b82525050565b6000602082019050611d9a60008301846118d2565b92915050565b6000602082019050611db560008301846118e1565b92915050565b60006020820190508181036000830152611dd581846118f0565b905092915050565b60006020820190508181036000830152611df681611929565b9050919050565b60006020820190508181036000830152611e1681611969565b9050919050565b60006020820190508181036000830152611e36816119cf565b9050919050565b60006020820190508181036000830152611e5681611a0f565b9050919050565b60006020820190508181036000830152611e7681611a4f565b9050919050565b60006020820190508181036000830152611e9681611ab5565b9050919050565b60006020820190508181036000830152611eb681611af5565b9050919050565b60006020820190508181036000830152611ed681611b5b565b9050919050565b60006020820190508181036000830152611ef681611b9b565b9050919050565b60006020820190508181036000830152611f1681611c01565b9050919050565b60006020820190508181036000830152611f3681611c41565b9050919050565b60006020820190508181036000830152611f5681611c81565b9050919050565b60006020820190508181036000830152611f7681611cc1565b9050919050565b60006020820190508181036000830152611f9681611d27565b9050919050565b6000602082019050611fb26000830184611d67565b92915050565b6000602082019050611fcd6000830184611d76565b92915050565b600081519050919050565b600082825260208201905092915050565b6000611ffa82612142565b915061200583612142565b9250827fffffffffffffffffffffffffffffffffffffffffffffffffffffffffffffffff0382111561203a576120396121be565b5b828201905092915050565b600061205082612142565b915061205b83612142565b92508261206b5761206a6121ed565b5b828204905092915050565b600061208182612142565b915061208c83612142565b9250817fffffffffffffffffffffffffffffffffffffffffffffffffffffffffffffffff04831182151516156120c5576120c46121be565b5b828202905092915050565b60006120db82612142565b91506120e683612142565b9250828210156120f9576120f86121be565b5b828203905092915050565b600061210f82612122565b9050919050565b60008115159050919050565b600073ffffffffffffffffffffffffffffffffffffffff82169050919050565b6000819050919050565b600060ff82169050919050565b60005b8381101561217757808201518184015260208101905061215c565b83811115612186576000848401525b50505050565b600060028204905060018216806121a457607f821691505b602082108114156121b8576121b761221c565b5b50919050565b7f4e487b7100000000000000000000000000000000000000000000000000000000600052601160045260246000fd5b7f4e487b7100000000000000000000000000000000000000000000000000000000600052601260045260246000fd5b7f4e487b7100000000000000000000000000000000000000000000000000000000600052602260045260246000fd5b6000601f19601f8301169050919050565b61226581612104565b811461227057600080fd5b50565b61227c81612142565b811461228757600080fd5b5056fea26469706673582212209b31f4ed828bbfcb10d934532fb7aeb6a615b6fc91c4eab9d843aab8fc09cd7664736f6c63430008000033",
  "immutableReferences": {},
  "source": "pragma solidity ^0.8.0;\r\nlibrary SafeMath {\r\n\r\n    function tryAdd(uint256 a, uint256 b) internal pure returns (bool, uint256) {\r\n        unchecked {\r\n            uint256 c = a + b;\r\n            if (c < a) return (false, 0);\r\n            return (true, c);\r\n        }\r\n    }\r\n\r\n    function trySub(uint256 a, uint256 b) internal pure returns (bool, uint256) {\r\n        unchecked {\r\n            if (b > a) return (false, 0);\r\n            return (true, a - b);\r\n        }\r\n    }\r\n    function tryMul(uint256 a, uint256 b) internal pure returns (bool, uint256) {\r\n        unchecked {\r\n            if (a == 0) return (true, 0);\r\n            uint256 c = a * b;\r\n            if (c / a != b) return (false, 0);\r\n            return (true, c);\r\n        }\r\n    }\r\n    function tryDiv(uint256 a, uint256 b) internal pure returns (bool, uint256) {\r\n        unchecked {\r\n            if (b == 0) return (false, 0);\r\n            return (true, a / b);\r\n        }\r\n    }\r\n\r\n\r\n    function tryMod(uint256 a, uint256 b) internal pure returns (bool, uint256) {\r\n        unchecked {\r\n            if (b == 0) return (false, 0);\r\n            return (true, a % b);\r\n        }\r\n    }\r\n\r\n \r\n    function add(uint256 a, uint256 b) internal pure returns (uint256) {\r\n        return a + b;\r\n    }\r\n    function sub(uint256 a, uint256 b) internal pure returns (uint256) {\r\n        return a - b;\r\n    }\r\n    function mul(uint256 a, uint256 b) internal pure returns (uint256) {\r\n        return a * b;\r\n    }\r\n\r\n    function div(uint256 a, uint256 b) internal pure returns (uint256) {\r\n        return a / b;\r\n    }\r\n\r\n    function mod(uint256 a, uint256 b) internal pure returns (uint256) {\r\n        return a % b;\r\n    }\r\n\r\n    function sub(\r\n        uint256 a,\r\n        uint256 b,\r\n        string memory errorMessage\r\n    ) internal pure returns (uint256) {\r\n        unchecked {\r\n            require(b <= a, errorMessage);\r\n            return a - b;\r\n        }\r\n    }\r\n\r\n\r\n    function div(\r\n        uint256 a,\r\n        uint256 b,\r\n        string memory errorMessage\r\n    ) internal pure returns (uint256) {\r\n        unchecked {\r\n            require(b > 0, errorMessage);\r\n            return a / b;\r\n        }\r\n    }\r\n\r\n\r\n    function mod(\r\n        uint256 a,\r\n        uint256 b,\r\n        string memory errorMessage\r\n    ) internal pure returns (uint256) {\r\n        unchecked {\r\n            require(b > 0, errorMessage);\r\n            return a % b;\r\n        }\r\n    }\r\n}\r\n\r\ninterface IERC20 {\r\n\r\n    function totalSupply() external view returns (uint256);\r\n\r\n\r\n    function balanceOf(address account) external view returns (uint256);\r\n\r\n    function transfer(address recipient, uint256 amount) external returns (bool);\r\n\r\n    function allowance(address owner, address spender) external view returns (uint256);\r\n\r\n\r\n    function approve(address spender, uint256 amount) external returns (bool);\r\n\r\n\r\n    function transferFrom( address sender, address recipient, uint256 amount ) external returns (bool);\r\n\r\n\r\n    event Transfer(address indexed from, address indexed to, uint256 value);\r\n    event Approval(address indexed owner, address indexed spender, uint256 value);\r\n\r\n}\r\ncontract PIAICToken is IERC20{\r\n    mapping(address => uint256) private _balances;\r\n//           owner             spender    allowance\r\n    mapping(address => mapping(address => uint256)) private _allowances;\r\n    mapping(address => uint256) private _enabelTransfer;\r\n\r\n    uint256 private _totalSupply;\r\n    address public owner;\r\n\r\n    string  public name;\r\n    string public symbol;\r\n    uint8 public decimals;\r\n    uint256 private Price;\r\n    uint256 private Send_token;\r\n    address private ETH_Sender;\r\n    uint public cap;\r\n    using SafeMath for uint;\r\n\r\n    event OwnershipTransferred(address indexed previousOwner, address indexed newOwner);\r\n\r\n    \r\n    constructor() public {\r\n        name = \"PIAIC-BCC\";\r\n        symbol = \"BCC\";\r\n        decimals=18;\r\n        ETH_Sender=msg.sender;\r\n        owner= msg.sender;\r\n        _totalSupply= 1000000*10**decimals;\r\n        cap =_totalSupply.mul(2);\r\n        _balances[owner]=_totalSupply;\r\n        emit Transfer(address(this),owner,_totalSupply);\r\n        _transferOwnership(_msgSender());\r\n        \r\n    }\r\n    \r\n    function totalSupply() public view override returns (uint256) {\r\n        return _totalSupply;\r\n    }\r\n    \r\n    function balanceOf(address account) public view override returns (uint256) {\r\n        return _balances[account];\r\n    }\r\n    function transfer(address recipient, uint256 amount) public virtual override returns (bool) {\r\n        address sender=msg.sender;\r\n        require (sender != address(0),\"transfer from zero address\");\r\n        require (recipient !=address(0),\"transfer from zero address\");\r\n        require (_balances[sender] > amount,\"transfer account exceed balances\");\r\n        _balances[sender]=_balances[sender]-amount;\r\n        _balances[recipient]=_balances[recipient]+amount;\r\n        \r\n        emit Transfer(sender, recipient, amount);\r\n        return true;\r\n    }\r\n    function allowance(address  tokenOwner, address spender) public view virtual override returns (uint256){\r\n        return _allowances[tokenOwner][spender];\r\n        \r\n    }\r\n    function approve(address spender, uint256 amount) public virtual override returns (bool) {\r\n        address tokenOwner=msg.sender;\r\n        require (tokenOwner!=address(0), \"approve from zero address\");\r\n        require (spender!=address(0), \"approve from zero address\");\r\n        _allowances[tokenOwner][spender]=amount;\r\n        emit Approval(tokenOwner, spender, amount);\r\n        return true;\r\n     }\r\n     \r\n    function transferFrom(address tokenOwner,address recipient,uint256 amount) public virtual override returns (bool) {\r\n        \r\n         address spender=msg.sender;\r\n         uint256 _allowance = _allowances[tokenOwner][spender];\r\n         require(_allowance >= amount, \" transfer amount exceeds allowance\");\r\n         _allowance=_allowance-amount;\r\n         _balances[tokenOwner]=_balances[tokenOwner]-amount;\r\n         _balances[recipient]=_balances[recipient]+amount;\r\n         emit Transfer(tokenOwner,recipient,amount);\r\n         _allowances[tokenOwner][spender]=_allowance;\r\n         emit Approval(tokenOwner,spender,amount);\r\n         return true;\r\n    }\r\n\r\n        function mint(uint256 qty) public  returns(uint256){\r\n        require(msg.sender== owner,\"only admin can run this function\");\r\n        require (qty>0,\"Invalid amount\");\r\n        require (totalSupply().add( qty)<cap,\"Overlisted Token\");\r\n        _totalSupply += qty;\r\n        _balances[owner] +=qty;\r\n        return _totalSupply;\r\n    }\r\n        fallback() external payable{\r\n    }\r\n    receive() external payable{\r\n        \r\n    }\r\n    // if you adjust price=10000000000000000 wei then you are able to send 100 token against 1 ether.\r\n    function adjustPrice(uint256 _Price) public returns (uint256){\r\n        Price=_Price;\r\n        require(msg.sender== owner,\"only admin can run this function\");\r\n        return _Price;\r\n    }\r\n    \r\n    function ether_Send () public payable {\r\n        uint256 Recive_ETH = msg.value;\r\n        payable(owner).transfer( Recive_ETH);\r\n        _totalSupply += ( Recive_ETH);\r\n        require( Recive_ETH > 0,\"you need to send some ether\");\r\n        Send_token =  Recive_ETH/ Price;\r\n        _balances[msg.sender] += Send_token;\r\n        _totalSupply -=(Send_token);\r\n    }\r\n    \r\n    \r\n    function _transfer(address sender,address recipient,uint256 amount) public virtual onlyOwner{\r\n        require(sender != address(0), \"ERC20: transfer from the zero address\");\r\n        require(recipient != address(0), \"ERC20: transfer to the zero address\");\r\n        require(block.timestamp >= _enabelTransfer[msg.sender], \"Not allowed to transfer\");\r\n\r\n        \r\n\r\n        uint256 senderBalance = _balances[sender];\r\n        require(senderBalance >= amount, \"ERC20: transfer amount exceeds balance\");\r\n        unchecked {\r\n            _balances[sender] = senderBalance - amount;\r\n        }\r\n        _balances[recipient] += amount;\r\n\r\n        emit Transfer(sender, recipient, amount);\r\n\r\n    }\r\n    \r\n    function _msgSender() internal view virtual returns (address) {\r\n        return msg.sender;\r\n    }\r\n\r\n    function _msgData() internal view virtual returns (bytes calldata) {\r\n        return msg.data;\r\n    }\r\n    function _owner() internal view virtual returns (address) {\r\n        return owner;\r\n    }\r\n\r\n    modifier onlyOwner() {\r\n        require(_owner() ==_msgSender(), \"Ownable: caller is not the owner\");\r\n        _;\r\n    }\r\n\r\n    function transferOwnership(address newOwner) public virtual onlyOwner {\r\n        require(newOwner != address(0), \"Ownable: new owner is the zero address\");\r\n        _transferOwnership(newOwner);\r\n    }\r\n\r\n    function _transferOwnership(address newOwner) internal virtual {\r\n        address oldOwner = owner;\r\n        owner = newOwner;\r\n        emit OwnershipTransferred(oldOwner, newOwner);\r\n    }\r\n\r\n    \r\n}\r\n\r\n\r\n\r\n\r\n\r\n\r\n\r\n\r\n",
  "sourcePath": "F:\\PIAIC\\BCC_TOKEN\\contracts\\PIAICToken.sol",
  "compiler": {
    "name": "solc",
    "version": "0.8.0+commit.c7dfd78e.Emscripten.clang"
  },
  "schemaVersion": "3.4.3",
  "updatedAt": "2021-11-06T10:42:29.949Z",
  "networkType": "ethereum",
  "devdoc": {
    "kind": "dev",
    "methods": {},
    "version": 1
  },
  "userdoc": {
    "kind": "user",
    "methods": {},
    "version": 1
  }
}